{
  "_format": "hh-sol-artifact-1",
  "contractName": "LiquidityPool",
  "sourceName": "contracts/contracts/LiquidityPool.sol",
  "abi": [
    {
      "inputs": [
        {
          "internalType": "address",
          "name": "_jstTokenAddress",
          "type": "address"
        },
        {
          "internalType": "uint256",
          "name": "_trxFlashLoanFee",
          "type": "uint256"
        },
        {
          "internalType": "uint256",
          "name": "_jstFlashLoanFee",
          "type": "uint256"
        }
      ],
      "stateMutability": "nonpayable",
      "type": "constructor"
    },
    {
      "inputs": [],
      "name": "LendingPool__InsufficientBalance",
      "type": "error"
    },
    {
      "inputs": [],
      "name": "LendingPool__InvalidAmount",
      "type": "error"
    },
    {
      "inputs": [],
      "name": "LendingPool__InvalidWithdrawAmount",
      "type": "error"
    },
    {
      "inputs": [],
      "name": "LendingPool__RepaymentFailed",
      "type": "error"
    },
    {
      "inputs": [
        {
          "internalType": "uint256",
          "name": "amount",
          "type": "uint256"
        }
      ],
      "name": "addJST",
      "outputs": [],
      "stateMutability": "nonpayable",
      "type": "function"
    },
    {
      "inputs": [],
      "name": "addTRX",
      "outputs": [],
      "stateMutability": "payable",
      "type": "function"
    },
    {
      "inputs": [
        {
          "internalType": "uint256",
          "name": "amount",
          "type": "uint256"
        }
      ],
      "name": "flashLoanJST",
      "outputs": [],
      "stateMutability": "payable",
      "type": "function"
    },
    {
      "inputs": [
        {
          "internalType": "uint256",
          "name": "amount",
          "type": "uint256"
        }
      ],
      "name": "flashLoanTRX",
      "outputs": [],
      "stateMutability": "payable",
      "type": "function"
    },
    {
      "inputs": [],
      "name": "getInvestorData",
      "outputs": [
        {
          "components": [
            {
              "internalType": "address",
              "name": "investorAddress",
              "type": "address"
            },
            {
              "internalType": "uint256",
              "name": "balanceTRX",
              "type": "uint256"
            },
            {
              "internalType": "uint256",
              "name": "balanceJST",
              "type": "uint256"
            }
          ],
          "internalType": "struct LiquidityPool.Investor",
          "name": "",
          "type": "tuple"
        }
      ],
      "stateMutability": "view",
      "type": "function"
    },
    {
      "inputs": [],
      "name": "jstFlashLoanFee",
      "outputs": [
        {
          "internalType": "uint256",
          "name": "",
          "type": "uint256"
        }
      ],
      "stateMutability": "view",
      "type": "function"
    },
    {
      "inputs": [],
      "name": "jstToken",
      "outputs": [
        {
          "internalType": "contract IERC20",
          "name": "",
          "type": "address"
        }
      ],
      "stateMutability": "view",
      "type": "function"
    },
    {
      "inputs": [],
      "name": "trxFlashLoanFee",
      "outputs": [
        {
          "internalType": "uint256",
          "name": "",
          "type": "uint256"
        }
      ],
      "stateMutability": "view",
      "type": "function"
    },
    {
      "inputs": [
        {
          "internalType": "uint256",
          "name": "amount",
          "type": "uint256"
        }
      ],
      "name": "withdrawJST",
      "outputs": [],
      "stateMutability": "nonpayable",
      "type": "function"
    },
    {
      "inputs": [
        {
          "internalType": "uint256",
          "name": "amount",
          "type": "uint256"
        }
      ],
      "name": "withdrawTRX",
      "outputs": [],
      "stateMutability": "nonpayable",
      "type": "function"
    }
  ],
  "bytecode": "0x608060405234801561001057600080fd5b506040516110ba3803806110ba83398101604081905261002f91610133565b600080546001600160a01b039485166001600160a01b031991821617825560019384556002929092556040805160608101825282815260208082018481529282018481526003805497880181558086529251969092027fc2575a0e9e593c00f959f8c92f12db2869c3395a3b0502d05e2516446f71f85b81018054979098169690951695909517909555517fc2575a0e9e593c00f959f8c92f12db2869c3395a3b0502d05e2516446f71f85c83015592517fc2575a0e9e593c00f959f8c92f12db2869c3395a3b0502d05e2516446f71f85d90910155818052600490527f17ef568e3e12ab5b9c7254a8d58478811de00f9e6eb34345acd53bf8fd09d3ec55610176565b60008060006060848603121561014857600080fd5b83516001600160a01b038116811461015f57600080fd5b602085015160409095015190969495509392505050565b610f35806101856000396000f3fe6080604052600436106100905760003560e01c80637f068fc0116100595780637f068fc0146101335780638a70bada14610173578063af558cdb14610189578063b3b80c901461019c578063bb1697d1146101bc57600080fd5b80626f1dd51461009557806340678409146100d25780635dbb08bb146100e7578063756f99da146100ef5780637d062e9414610113575b600080fd5b3480156100a157600080fd5b506000546100b5906001600160a01b031681565b6040516001600160a01b0390911681526020015b60405180910390f35b6100e56100e0366004610e13565b6101dc565b005b6100e56104c9565b3480156100fb57600080fd5b5061010560015481565b6040519081526020016100c9565b34801561011f57600080fd5b506100e561012e366004610e13565b6106a2565b34801561013f57600080fd5b506101486107bd565b6040805182516001600160a01b031681526020808401519082015291810151908201526060016100c9565b34801561017f57600080fd5b5061010560025481565b6100e5610197366004610e13565b610857565b3480156101a857600080fd5b506100e56101b7366004610e13565b6109ce565b3480156101c857600080fd5b506100e56101d7366004610e13565b610c6e565b600080546040516370a0823160e01b81523060048201526001600160a01b03909116906370a0823190602401602060405180830381865afa158015610225573d6000803e3d6000fd5b505050506040513d601f19601f820116820180604052508101906102499190610e2c565b905060008211801561025b5750808211155b6102a25760405162461bcd60e51b8152602060048201526013602482015272125b9d985b1a59081b1bd85b88185b5bdd5b9d606a1b60448201526064015b60405180910390fd5b6000612710600254846102b59190610e5b565b6102bf9190610e78565b6000805460405163a9059cbb60e01b81523360048201526024810187905292935090916001600160a01b039091169063a9059cbb906044016020604051808303816000875af1158015610316573d6000803e3d6000fd5b505050506040513d601f19601f8201168201806040525081019061033a9190610e9a565b90508061037b5760405162461bcd60e51b815260206004820152600f60248201526e151c985b9cd9995c8819985a5b1959608a1b6044820152606401610299565b604051600090339082908181818181875af1925050503d80600081146103bd576040519150601f19603f3d011682016040523d82523d6000602084013e6103c2565b606091505b50509050806104065760405162461bcd60e51b815260206004820152601060248201526f115e1958dd5d1a5bdb8819985a5b195960821b6044820152606401610299565b600080546040516370a0823160e01b81523060048201526001600160a01b03909116906370a0823190602401602060405180830381865afa15801561044f573d6000803e3d6000fd5b505050506040513d601f19601f820116820180604052508101906104739190610e2c565b905061047f8486610ec3565b8110156104c15760405162461bcd60e51b815260206004820152601060248201526f14995c185e5b595b9d0819985a5b195960821b6044820152606401610299565b505050505050565b3361050f5760405162461bcd60e51b8152602060048201526016602482015275496e76616c69642073656e646572206164647265737360501b6044820152606401610299565b6000341161055f5760405162461bcd60e51b815260206004820152601d60248201527f416d6f756e74206d7573742062652067726561746572207468616e20300000006044820152606401610299565b33600090815260046020526040812054900361065657604080516060810182523381523460208201908152600092820183815260038054600180820183559582905284517fc2575a0e9e593c00f959f8c92f12db2869c3395a3b0502d05e2516446f71f85b91830291820180546001600160a01b0319166001600160a01b0390921691909117905592517fc2575a0e9e593c00f959f8c92f12db2869c3395a3b0502d05e2516446f71f85c84015590517fc2575a0e9e593c00f959f8c92f12db2869c3395a3b0502d05e2516446f71f85d9092019190915554909161064391610ed6565b3360009081526004602052604090205550565b3360009081526004602052604090205460038054349290811061067b5761067b610ee9565b9060005260206000209060030201600101600082825461069b9190610ec3565b9091555050565b3360009081526004602052604081205490036106f55760405162461bcd60e51b8152602060048201526012602482015271125b9d995cdd1bdc881b9bdd08199bdd5b9960721b6044820152606401610299565b33600090815260046020526040812054600380549192918390811061071c5761071c610ee9565b90600052602060002090600302016001015490508083111561075157604051637f16388760e01b815260040160405180910390fd5b826003838154811061076557610765610ee9565b906000526020600020906003020160010160008282546107859190610ed6565b9091555050604051339084156108fc029085906000818181858888f193505050501580156107b7573d6000803e3d6000fd5b50505050565b6107ea604051806060016040528060006001600160a01b0316815260200160008152602001600081525090565b3360009081526004602052604090205460038054909190811061080f5761080f610ee9565b600091825260209182902060408051606081018252600390930290910180546001600160a01b0316835260018101549383019390935260029092015491810191909152919050565b4781158015906108675750808211155b6108a95760405162461bcd60e51b8152602060048201526013602482015272125b9d985b1a59081b1bd85b88185b5bdd5b9d606a1b6044820152606401610299565b6000612710600154846108bc9190610e5b565b6108c69190610e78565b604051909150339084156108fc029085906000818181858888f193505050501580156108f6573d6000803e3d6000fd5b50604051600090339082908181818181875af1925050503d8060008114610939576040519150601f19603f3d011682016040523d82523d6000602084013e61093e565b606091505b50509050806109825760405162461bcd60e51b815260206004820152601060248201526f115e1958dd5d1a5bdb8819985a5b195960821b6044820152606401610299565b61098c8284610ec3565b4710156107b75760405162461bcd60e51b815260206004820152601060248201526f14995c185e5b595b9d0819985a5b195960821b6044820152606401610299565b33610a145760405162461bcd60e51b8152602060048201526016602482015275496e76616c69642073656e646572206164647265737360501b6044820152606401610299565b60008111610a645760405162461bcd60e51b815260206004820152601d60248201527f416d6f756e74206d7573742062652067726561746572207468616e20300000006044820152606401610299565b600080546040516323b872dd60e01b8152336004820152306024820152604481018490526001600160a01b03909116906323b872dd906064016020604051808303816000875af1158015610abc573d6000803e3d6000fd5b505050506040513d601f19601f82011682018060405250810190610ae09190610e9a565b905080610b275760405162461bcd60e51b8152602060048201526015602482015274151bdad95b881d1c985b9cd9995c8819985a5b1959605a1b6044820152606401610299565b336000908152600460205260408120549003610c20576040805160608101825233815260006020820181815292820185815260038054600180820183559382905284517fc2575a0e9e593c00f959f8c92f12db2869c3395a3b0502d05e2516446f71f85b91830291820180546001600160a01b0319166001600160a01b0390921691909117905594517fc2575a0e9e593c00f959f8c92f12db2869c3395a3b0502d05e2516446f71f85c86015590517fc2575a0e9e593c00f959f8c92f12db2869c3395a3b0502d05e2516446f71f85d9094019390935591549091610c0b91610ed6565b33600090815260046020526040902055505050565b33600090815260046020526040902054600380548492908110610c4557610c45610ee9565b90600052602060002090600302016002016000828254610c659190610ec3565b90915550505050565b336000908152600460205260408120549003610cc15760405162461bcd60e51b8152602060048201526012602482015271125b9d995cdd1bdc881b9bdd08199bdd5b9960721b6044820152606401610299565b336000908152600460205260408120546003805491929183908110610ce857610ce8610ee9565b906000526020600020906003020160020154905080831115610d1d57604051637f16388760e01b815260040160405180910390fd5b8260038381548110610d3157610d31610ee9565b90600052602060002090600302016002016000828254610d519190610ed6565b90915550506000805460405163a9059cbb60e01b8152336004820152602481018690526001600160a01b039091169063a9059cbb906044016020604051808303816000875af1158015610da8573d6000803e3d6000fd5b505050506040513d601f19601f82011682018060405250810190610dcc9190610e9a565b9050806107b75760405162461bcd60e51b8152602060048201526015602482015274151bdad95b881d1c985b9cd9995c8819985a5b1959605a1b6044820152606401610299565b600060208284031215610e2557600080fd5b5035919050565b600060208284031215610e3e57600080fd5b5051919050565b634e487b7160e01b600052601160045260246000fd5b8082028115828204841417610e7257610e72610e45565b92915050565b600082610e9557634e487b7160e01b600052601260045260246000fd5b500490565b600060208284031215610eac57600080fd5b81518015158114610ebc57600080fd5b9392505050565b80820180821115610e7257610e72610e45565b81810381811115610e7257610e72610e45565b634e487b7160e01b600052603260045260246000fdfea2646970667358221220401d70a8ecf4f029c4b75dfac88ddf0160a5f69ba18c8c6e67662388e94805b864736f6c63430008140033",
  "linkReferences": {},
  "deployedLinkReferences": {}
}