{
  "_format": "hh-sol-artifact-1",
  "contractName": "Oracle",
  "sourceName": "contracts/contracts/oracle.sol",
  "abi": [
    {
      "inputs": [],
      "stateMutability": "nonpayable",
      "type": "constructor"
    },
    {
      "anonymous": false,
      "inputs": [
        {
          "indexed": true,
          "internalType": "address",
          "name": "asset",
          "type": "address"
        },
        {
          "indexed": false,
          "internalType": "uint256",
          "name": "newPrice",
          "type": "uint256"
        }
      ],
      "name": "PriceUpdated",
      "type": "event"
    },
    {
      "inputs": [],
      "name": "admin",
      "outputs": [
        {
          "internalType": "address",
          "name": "",
          "type": "address"
        }
      ],
      "stateMutability": "view",
      "type": "function"
    },
    {
      "inputs": [
        {
          "internalType": "address",
          "name": "",
          "type": "address"
        }
      ],
      "name": "assetPrices",
      "outputs": [
        {
          "internalType": "uint256",
          "name": "",
          "type": "uint256"
        }
      ],
      "stateMutability": "view",
      "type": "function"
    },
    {
      "inputs": [
        {
          "internalType": "address",
          "name": "newAdmin",
          "type": "address"
        }
      ],
      "name": "changeAdmin",
      "outputs": [],
      "stateMutability": "nonpayable",
      "type": "function"
    },
    {
      "inputs": [
        {
          "internalType": "address",
          "name": "asset",
          "type": "address"
        }
      ],
      "name": "getPrice",
      "outputs": [
        {
          "internalType": "uint256",
          "name": "",
          "type": "uint256"
        }
      ],
      "stateMutability": "view",
      "type": "function"
    },
    {
      "inputs": [
        {
          "internalType": "address",
          "name": "asset",
          "type": "address"
        },
        {
          "internalType": "uint256",
          "name": "price",
          "type": "uint256"
        }
      ],
      "name": "setPrice",
      "outputs": [],
      "stateMutability": "nonpayable",
      "type": "function"
    }
  ],
  "bytecode": "0x608060405234801561001057600080fd5b50600080546001600160a01b0319163317905561042a806100326000396000f3fe608060405234801561001057600080fd5b50600436106100565760003560e01c8062e4768b1461005b57806341976e09146100705780635e9a523c146100965780638f283970146100b6578063f851a440146100c9575b600080fd5b61006e6100693660046103a8565b6100f4565b005b61008361007e3660046103d2565b610244565b6040519081526020015b60405180910390f35b6100836100a43660046103d2565b60016020526000908152604090205481565b61006e6100c43660046103d2565b6102c0565b6000546100dc906001600160a01b031681565b6040516001600160a01b03909116815260200161008d565b6000546001600160a01b0316331461014d5760405162461bcd60e51b815260206004820152601760248201527621b0b63632b91034b9903737ba103a34329030b236b4b760491b60448201526064015b60405180910390fd5b6001600160a01b03821661019b5760405162461bcd60e51b8152602060048201526015602482015274496e76616c6964206173736574206164647265737360581b6044820152606401610144565b600081116101eb5760405162461bcd60e51b815260206004820152601f60248201527f5072696365206d7573742062652067726561746572207468616e207a65726f006044820152606401610144565b6001600160a01b03821660008181526001602052604090819020839055517f0d86730737b142fc160892fa8a0f2db687a92a0e294d1ad70624cf5acef03b84906102389084815260200190565b60405180910390a25050565b6001600160a01b038116600090815260016020526040812054806102ba5760405162461bcd60e51b815260206004820152602760248201527f5072696365206e6f7420617661696c61626c6520666f722074686520676976656044820152661b88185cdcd95d60ca1b6064820152608401610144565b92915050565b6000546001600160a01b031633146103145760405162461bcd60e51b815260206004820152601760248201527621b0b63632b91034b9903737ba103a34329030b236b4b760491b6044820152606401610144565b6001600160a01b03811661036a5760405162461bcd60e51b815260206004820152601960248201527f496e76616c6964206e65772061646d696e2061646472657373000000000000006044820152606401610144565b600080546001600160a01b0319166001600160a01b0392909216919091179055565b80356001600160a01b03811681146103a357600080fd5b919050565b600080604083850312156103bb57600080fd5b6103c48361038c565b946020939093013593505050565b6000602082840312156103e457600080fd5b6103ed8261038c565b939250505056fea26469706673582212203ffff63df0cb4ac2b9ba4d02bb3af2d536ccf269c59942da105aa50d55c7771264736f6c63430008140033",
  "linkReferences": {},
  "deployedLinkReferences": {}
}