{
  "_format": "hh-sol-artifact-1",
  "contractName": "UserVault",
  "sourceName": "contracts/contracts/uservault.sol",
  "abi": [
    {
      "inputs": [
        {
          "internalType": "address",
          "name": "_jstTokenAddress",
          "type": "address"
        }
      ],
      "stateMutability": "nonpayable",
      "type": "constructor"
    },
    {
      "anonymous": false,
      "inputs": [
        {
          "indexed": true,
          "internalType": "address",
          "name": "oldAdmin",
          "type": "address"
        },
        {
          "indexed": true,
          "internalType": "address",
          "name": "newAdmin",
          "type": "address"
        }
      ],
      "name": "AdminChanged",
      "type": "event"
    },
    {
      "anonymous": false,
      "inputs": [
        {
          "indexed": true,
          "internalType": "address",
          "name": "user",
          "type": "address"
        },
        {
          "indexed": false,
          "internalType": "string",
          "name": "token",
          "type": "string"
        },
        {
          "indexed": false,
          "internalType": "uint256",
          "name": "amount",
          "type": "uint256"
        }
      ],
      "name": "Deposited",
      "type": "event"
    },
    {
      "anonymous": false,
      "inputs": [
        {
          "indexed": true,
          "internalType": "address",
          "name": "user",
          "type": "address"
        },
        {
          "indexed": false,
          "internalType": "string",
          "name": "token",
          "type": "string"
        },
        {
          "indexed": false,
          "internalType": "uint256",
          "name": "amount",
          "type": "uint256"
        }
      ],
      "name": "Withdrawn",
      "type": "event"
    },
    {
      "inputs": [],
      "name": "admin",
      "outputs": [
        {
          "internalType": "address",
          "name": "",
          "type": "address"
        }
      ],
      "stateMutability": "view",
      "type": "function"
    },
    {
      "inputs": [
        {
          "internalType": "address",
          "name": "newAdmin",
          "type": "address"
        }
      ],
      "name": "changeAdmin",
      "outputs": [],
      "stateMutability": "nonpayable",
      "type": "function"
    },
    {
      "inputs": [
        {
          "internalType": "uint256",
          "name": "amount",
          "type": "uint256"
        }
      ],
      "name": "depositJST",
      "outputs": [],
      "stateMutability": "nonpayable",
      "type": "function"
    },
    {
      "inputs": [],
      "name": "depositTRX",
      "outputs": [],
      "stateMutability": "payable",
      "type": "function"
    },
    {
      "inputs": [],
      "name": "getJSTBalance",
      "outputs": [
        {
          "internalType": "uint256",
          "name": "",
          "type": "uint256"
        }
      ],
      "stateMutability": "view",
      "type": "function"
    },
    {
      "inputs": [],
      "name": "getTRXBalance",
      "outputs": [
        {
          "internalType": "uint256",
          "name": "",
          "type": "uint256"
        }
      ],
      "stateMutability": "view",
      "type": "function"
    },
    {
      "inputs": [],
      "name": "jstTokenAddress",
      "outputs": [
        {
          "internalType": "address",
          "name": "",
          "type": "address"
        }
      ],
      "stateMutability": "view",
      "type": "function"
    },
    {
      "inputs": [
        {
          "internalType": "uint256",
          "name": "amount",
          "type": "uint256"
        }
      ],
      "name": "withdrawJST",
      "outputs": [],
      "stateMutability": "nonpayable",
      "type": "function"
    },
    {
      "inputs": [
        {
          "internalType": "uint256",
          "name": "amount",
          "type": "uint256"
        }
      ],
      "name": "withdrawTRX",
      "outputs": [],
      "stateMutability": "nonpayable",
      "type": "function"
    }
  ],
  "bytecode": "0x608060405234801561001057600080fd5b50604051610a01380380610a0183398101604081905261002f916100bc565b6001600160a01b0381166100895760405162461bcd60e51b815260206004820152601560248201527f496e76616c696420746f6b656e20616464726573730000000000000000000000604482015260640160405180910390fd5b60008054336001600160a01b031991821617909155600180549091166001600160a01b03929092169190911790556100ec565b6000602082840312156100ce57600080fd5b81516001600160a01b03811681146100e557600080fd5b9392505050565b610906806100fb6000396000f3fe6080604052600436106100865760003560e01c806386782cc21161005957806386782cc2146101215780638f28397014610143578063b366fe2b14610163578063bb1697d114610183578063f851a440146101a357600080fd5b80631cd5be441461008b5780633062aa83146100bf5780634b398e99146100f75780637d062e9414610101575b600080fd5b34801561009757600080fd5b50336000908152600260205260409020600101545b6040519081526020015b60405180910390f35b3480156100cb57600080fd5b506001546100df906001600160a01b031681565b6040516001600160a01b0390911681526020016100b6565b6100ff6101c3565b005b34801561010d57600080fd5b506100ff61011c366004610792565b610260565b34801561012d57600080fd5b50336000908152600260205260409020546100ac565b34801561014f57600080fd5b506100ff61015e3660046107ab565b610387565b34801561016f57600080fd5b506100ff61017e366004610792565b61048a565b34801561018f57600080fd5b506100ff61019e366004610792565b6105e0565b3480156101af57600080fd5b506000546100df906001600160a01b031681565b600034116101ec5760405162461bcd60e51b81526004016101e3906107db565b60405180910390fd5b336000908152600260205260408120805434929061020b908490610839565b909155505060408051818152600381830152620a8a4b60eb1b6060820152346020820152905133917ffd4bdef056842e4615d2a093647094c0b9bf67c63662d614d63fefd617e0add2919081900360800190a2565b600081116102805760405162461bcd60e51b81526004016101e390610852565b336000908152600260205260409020548111156102df5760405162461bcd60e51b815260206004820152601860248201527f496e73756666696369656e74205452582062616c616e6365000000000000000060448201526064016101e3565b33600090815260026020526040812080548392906102fe90849061089b565b9091555050604051339082156108fc029083906000818181858888f19350505050158015610330573d6000803e3d6000fd5b5060408051818152600391810191909152620a8a4b60eb1b60608201526020810182905233907f18af30a54a1951aeee806c16cdcb8d087ed1a095f0d9a87261b92cef2c6cc92d906080015b60405180910390a250565b6000546001600160a01b031633146103e15760405162461bcd60e51b815260206004820152601760248201527f43616c6c6572206973206e6f74207468652061646d696e00000000000000000060448201526064016101e3565b6001600160a01b03811661042f5760405162461bcd60e51b8152602060048201526015602482015274496e76616c69642061646d696e206164647265737360581b60448201526064016101e3565b600080546040516001600160a01b03808516939216917f7e644d79422f17c01e4894b5f4f588d331ebfa28653d42ae832dc59e38c9798f91a3600080546001600160a01b0319166001600160a01b0392909216919091179055565b600081116104aa5760405162461bcd60e51b81526004016101e3906107db565b6001546040516323b872dd60e01b8152336004820152306024820152604481018390526001600160a01b03909116906323b872dd906064016020604051808303816000875af1158015610501573d6000803e3d6000fd5b505050506040513d601f19601f8201168201806040525081019061052591906108ae565b61056a5760405162461bcd60e51b8152602060048201526016602482015275151c985b9cd9995c881bd9881294d50819985a5b195960521b60448201526064016101e3565b336000908152600260205260408120600101805483929061058c908490610839565b909155505060408051818152600391810191909152621294d560ea1b60608201526020810182905233907ffd4bdef056842e4615d2a093647094c0b9bf67c63662d614d63fefd617e0add29060800161037c565b600081116106005760405162461bcd60e51b81526004016101e390610852565b336000908152600260205260409020600101548111156106625760405162461bcd60e51b815260206004820152601860248201527f496e73756666696369656e74204a53542062616c616e6365000000000000000060448201526064016101e3565b336000908152600260205260408120600101805483929061068490849061089b565b909155505060015460405163a9059cbb60e01b8152336004820152602481018390526001600160a01b039091169063a9059cbb906044016020604051808303816000875af11580156106da573d6000803e3d6000fd5b505050506040513d601f19601f820116820180604052508101906106fe91906108ae565b6107435760405162461bcd60e51b8152602060048201526016602482015275151c985b9cd9995c881bd9881294d50819985a5b195960521b60448201526064016101e3565b60408051818152600391810191909152621294d560ea1b60608201526020810182905233907f18af30a54a1951aeee806c16cdcb8d087ed1a095f0d9a87261b92cef2c6cc92d9060800161037c565b6000602082840312156107a457600080fd5b5035919050565b6000602082840312156107bd57600080fd5b81356001600160a01b03811681146107d457600080fd5b9392505050565b60208082526028908201527f4465706f73697420616d6f756e74206d7573742062652067726561746572207460408201526768616e207a65726f60c01b606082015260800190565b634e487b7160e01b600052601160045260246000fd5b8082018082111561084c5761084c610823565b92915050565b60208082526029908201527f576974686472617720616d6f756e74206d7573742062652067726561746572206040820152687468616e207a65726f60b81b606082015260800190565b8181038181111561084c5761084c610823565b6000602082840312156108c057600080fd5b815180151581146107d457600080fdfea2646970667358221220630254bf0bd5d7e6fd2040b0318a424075703aec974b606a13dd85d7708bcf7b64736f6c63430008140033",
  "linkReferences": {},
  "deployedLinkReferences": {}
}